{
  "_format": "hh-sol-artifact-1",
  "contractName": "PositionToken",
  "sourceName": "contracts/PositionToken.sol",
  "abi": [
    {
      "inputs": [
        {
          "internalType": "string",
          "name": "name_",
          "type": "string"
        },
        {
          "internalType": "string",
          "name": "symbol_",
          "type": "string"
        },
        {
          "internalType": "uint256",
          "name": "poolId_",
          "type": "uint256"
        }
      ],
      "stateMutability": "nonpayable",
      "type": "constructor"
    },
    {
      "anonymous": false,
      "inputs": [
        {
          "indexed": true,
          "internalType": "address",
          "name": "owner",
          "type": "address"
        },
        {
          "indexed": true,
          "internalType": "address",
          "name": "spender",
          "type": "address"
        },
        {
          "indexed": false,
          "internalType": "uint256",
          "name": "value",
          "type": "uint256"
        }
      ],
      "name": "Approval",
      "type": "event"
    },
    {
      "anonymous": false,
      "inputs": [
        {
          "indexed": true,
          "internalType": "address",
          "name": "from",
          "type": "address"
        },
        {
          "indexed": true,
          "internalType": "address",
          "name": "to",
          "type": "address"
        },
        {
          "indexed": false,
          "internalType": "uint256",
          "name": "value",
          "type": "uint256"
        }
      ],
      "name": "Transfer",
      "type": "event"
    },
    {
      "inputs": [
        {
          "internalType": "address",
          "name": "owner",
          "type": "address"
        },
        {
          "internalType": "address",
          "name": "spender",
          "type": "address"
        }
      ],
      "name": "allowance",
      "outputs": [
        {
          "internalType": "uint256",
          "name": "",
          "type": "uint256"
        }
      ],
      "stateMutability": "view",
      "type": "function"
    },
    {
      "inputs": [
        {
          "internalType": "address",
          "name": "spender",
          "type": "address"
        },
        {
          "internalType": "uint256",
          "name": "amount",
          "type": "uint256"
        }
      ],
      "name": "approve",
      "outputs": [
        {
          "internalType": "bool",
          "name": "",
          "type": "bool"
        }
      ],
      "stateMutability": "nonpayable",
      "type": "function"
    },
    {
      "inputs": [
        {
          "internalType": "address",
          "name": "account",
          "type": "address"
        }
      ],
      "name": "balanceOf",
      "outputs": [
        {
          "internalType": "uint256",
          "name": "",
          "type": "uint256"
        }
      ],
      "stateMutability": "view",
      "type": "function"
    },
    {
      "inputs": [
        {
          "internalType": "address",
          "name": "redeemer",
          "type": "address"
        },
        {
          "internalType": "uint256",
          "name": "amount",
          "type": "uint256"
        }
      ],
      "name": "burn",
      "outputs": [],
      "stateMutability": "nonpayable",
      "type": "function"
    },
    {
      "inputs": [],
      "name": "decimals",
      "outputs": [
        {
          "internalType": "uint8",
          "name": "",
          "type": "uint8"
        }
      ],
      "stateMutability": "view",
      "type": "function"
    },
    {
      "inputs": [
        {
          "internalType": "address",
          "name": "spender",
          "type": "address"
        },
        {
          "internalType": "uint256",
          "name": "subtractedValue",
          "type": "uint256"
        }
      ],
      "name": "decreaseAllowance",
      "outputs": [
        {
          "internalType": "bool",
          "name": "",
          "type": "bool"
        }
      ],
      "stateMutability": "nonpayable",
      "type": "function"
    },
    {
      "inputs": [
        {
          "internalType": "address",
          "name": "spender",
          "type": "address"
        },
        {
          "internalType": "uint256",
          "name": "addedValue",
          "type": "uint256"
        }
      ],
      "name": "increaseAllowance",
      "outputs": [
        {
          "internalType": "bool",
          "name": "",
          "type": "bool"
        }
      ],
      "stateMutability": "nonpayable",
      "type": "function"
    },
    {
      "inputs": [
        {
          "internalType": "address",
          "name": "recipient",
          "type": "address"
        },
        {
          "internalType": "uint256",
          "name": "amount",
          "type": "uint256"
        }
      ],
      "name": "mint",
      "outputs": [],
      "stateMutability": "nonpayable",
      "type": "function"
    },
    {
      "inputs": [],
      "name": "name",
      "outputs": [
        {
          "internalType": "string",
          "name": "",
          "type": "string"
        }
      ],
      "stateMutability": "view",
      "type": "function"
    },
    {
      "inputs": [],
      "name": "owner",
      "outputs": [
        {
          "internalType": "address",
          "name": "",
          "type": "address"
        }
      ],
      "stateMutability": "view",
      "type": "function"
    },
    {
      "inputs": [],
      "name": "poolId",
      "outputs": [
        {
          "internalType": "uint256",
          "name": "",
          "type": "uint256"
        }
      ],
      "stateMutability": "view",
      "type": "function"
    },
    {
      "inputs": [],
      "name": "symbol",
      "outputs": [
        {
          "internalType": "string",
          "name": "",
          "type": "string"
        }
      ],
      "stateMutability": "view",
      "type": "function"
    },
    {
      "inputs": [],
      "name": "totalSupply",
      "outputs": [
        {
          "internalType": "uint256",
          "name": "",
          "type": "uint256"
        }
      ],
      "stateMutability": "view",
      "type": "function"
    },
    {
      "inputs": [
        {
          "internalType": "address",
          "name": "recipient",
          "type": "address"
        },
        {
          "internalType": "uint256",
          "name": "amount",
          "type": "uint256"
        }
      ],
      "name": "transfer",
      "outputs": [
        {
          "internalType": "bool",
          "name": "",
          "type": "bool"
        }
      ],
      "stateMutability": "nonpayable",
      "type": "function"
    },
    {
      "inputs": [
        {
          "internalType": "address",
          "name": "sender",
          "type": "address"
        },
        {
          "internalType": "address",
          "name": "recipient",
          "type": "address"
        },
        {
          "internalType": "uint256",
          "name": "amount",
          "type": "uint256"
        }
      ],
      "name": "transferFrom",
      "outputs": [
        {
          "internalType": "bool",
          "name": "",
          "type": "bool"
        }
      ],
      "stateMutability": "nonpayable",
      "type": "function"
    }
  ],
  "bytecode": "0x60806040523480156200001157600080fd5b5060405162001fe638038062001fe6833981810160405281019062000037919062000203565b8282816003908051906020019062000051929190620000be565b5080600490805190602001906200006a929190620000be565b50505033600660006101000a81548173ffffffffffffffffffffffffffffffffffffffff021916908373ffffffffffffffffffffffffffffffffffffffff1602179055508060058190555050505062000445565b828054620000cc906200033c565b90600052602060002090601f016020900481019282620000f057600085556200013c565b82601f106200010b57805160ff19168380011785556200013c565b828001600101855582156200013c579182015b828111156200013b5782518255916020019190600101906200011e565b5b5090506200014b91906200014f565b5090565b5b808211156200016a57600081600090555060010162000150565b5090565b6000620001856200017f84620002c6565b6200029d565b905082815260208101848484011115620001a457620001a36200040b565b5b620001b184828562000306565b509392505050565b600082601f830112620001d157620001d062000406565b5b8151620001e38482602086016200016e565b91505092915050565b600081519050620001fd816200042b565b92915050565b6000806000606084860312156200021f576200021e62000415565b5b600084015167ffffffffffffffff81111562000240576200023f62000410565b5b6200024e86828701620001b9565b935050602084015167ffffffffffffffff81111562000272576200027162000410565b5b6200028086828701620001b9565b92505060406200029386828701620001ec565b9150509250925092565b6000620002a9620002bc565b9050620002b7828262000372565b919050565b6000604051905090565b600067ffffffffffffffff821115620002e457620002e3620003d7565b5b620002ef826200041a565b9050602081019050919050565b6000819050919050565b60005b838110156200032657808201518184015260208101905062000309565b8381111562000336576000848401525b50505050565b600060028204905060018216806200035557607f821691505b602082108114156200036c576200036b620003a8565b5b50919050565b6200037d826200041a565b810181811067ffffffffffffffff821117156200039f576200039e620003d7565b5b80604052505050565b7f4e487b7100000000000000000000000000000000000000000000000000000000600052602260045260246000fd5b7f4e487b7100000000000000000000000000000000000000000000000000000000600052604160045260246000fd5b600080fd5b600080fd5b600080fd5b600080fd5b6000601f19601f8301169050919050565b6200043681620002fc565b81146200044257600080fd5b50565b611b9180620004556000396000f3fe608060405234801561001057600080fd5b50600436106100f55760003560e01c806340c10f19116100975780639dc29fac116100665780639dc29fac1461028a578063a457c2d7146102a6578063a9059cbb146102d6578063dd62ed3e14610306576100f5565b806340c10f191461020257806370a082311461021e5780638da5cb5b1461024e57806395d89b411461026c576100f5565b806323b872dd116100d357806323b872dd14610166578063313ce5671461019657806339509351146101b45780633e0dc34e146101e4576100f5565b806306fdde03146100fa578063095ea7b31461011857806318160ddd14610148575b600080fd5b610102610336565b60405161010f9190611462565b60405180910390f35b610132600480360381019061012d91906111f6565b6103c8565b60405161013f9190611447565b60405180910390f35b6101506103e6565b60405161015d91906115e4565b60405180910390f35b610180600480360381019061017b91906111a3565b6103f0565b60405161018d9190611447565b60405180910390f35b61019e6104e8565b6040516101ab91906115ff565b60405180910390f35b6101ce60048036038101906101c991906111f6565b6104f1565b6040516101db9190611447565b60405180910390f35b6101ec61059d565b6040516101f991906115e4565b60405180910390f35b61021c600480360381019061021791906111f6565b6105a7565b005b61023860048036038101906102339190611136565b610645565b60405161024591906115e4565b60405180910390f35b61025661068d565b604051610263919061142c565b60405180910390f35b6102746106b7565b6040516102819190611462565b60405180910390f35b6102a4600480360381019061029f91906111f6565b610749565b005b6102c060048036038101906102bb91906111f6565b6107e7565b6040516102cd9190611447565b60405180910390f35b6102f060048036038101906102eb91906111f6565b6108d2565b6040516102fd9190611447565b60405180910390f35b610320600480360381019061031b9190611163565b6108f0565b60405161032d91906115e4565b60405180910390f35b60606003805461034590611748565b80601f016020809104026020016040519081016040528092919081815260200182805461037190611748565b80156103be5780601f10610393576101008083540402835291602001916103be565b820191906000526020600020905b8154815290600101906020018083116103a157829003601f168201915b5050505050905090565b60006103dc6103d5610977565b848461097f565b6001905092915050565b6000600254905090565b60006103fd848484610b4a565b6000600160008673ffffffffffffffffffffffffffffffffffffffff1673ffffffffffffffffffffffffffffffffffffffff1681526020019081526020016000206000610448610977565b73ffffffffffffffffffffffffffffffffffffffff1673ffffffffffffffffffffffffffffffffffffffff168152602001908152602001600020549050828110156104c8576040517f08c379a00000000000000000000000000000000000000000000000000000000081526004016104bf90611504565b60405180910390fd5b6104dc856104d4610977565b85840361097f565b60019150509392505050565b60006012905090565b60006105936104fe610977565b84846001600061050c610977565b73ffffffffffffffffffffffffffffffffffffffff1673ffffffffffffffffffffffffffffffffffffffff16815260200190815260200160002060008873ffffffffffffffffffffffffffffffffffffffff1673ffffffffffffffffffffffffffffffffffffffff1681526020019081526020016000205461058e9190611636565b61097f565b6001905092915050565b6000600554905090565b3373ffffffffffffffffffffffffffffffffffffffff16600660009054906101000a900473ffffffffffffffffffffffffffffffffffffffff1673ffffffffffffffffffffffffffffffffffffffff1614610637576040517f08c379a000000000000000000000000000000000000000000000000000000000815260040161062e90611544565b60405180910390fd5b6106418282610dcb565b5050565b60008060008373ffffffffffffffffffffffffffffffffffffffff1673ffffffffffffffffffffffffffffffffffffffff168152602001908152602001600020549050919050565b6000600660009054906101000a900473ffffffffffffffffffffffffffffffffffffffff16905090565b6060600480546106c690611748565b80601f01602080910402602001604051908101604052809291908181526020018280546106f290611748565b801561073f5780601f106107145761010080835404028352916020019161073f565b820191906000526020600020905b81548152906001019060200180831161072257829003601f168201915b5050505050905090565b3373ffffffffffffffffffffffffffffffffffffffff16600660009054906101000a900473ffffffffffffffffffffffffffffffffffffffff1673ffffffffffffffffffffffffffffffffffffffff16146107d9576040517f08c379a00000000000000000000000000000000000000000000000000000000081526004016107d090611544565b60405180910390fd5b6107e38282610f2b565b5050565b600080600160006107f6610977565b73ffffffffffffffffffffffffffffffffffffffff1673ffffffffffffffffffffffffffffffffffffffff16815260200190815260200160002060008573ffffffffffffffffffffffffffffffffffffffff1673ffffffffffffffffffffffffffffffffffffffff168152602001908152602001600020549050828110156108b3576040517f08c379a00000000000000000000000000000000000000000000000000000000081526004016108aa906115a4565b60405180910390fd5b6108c76108be610977565b8585840361097f565b600191505092915050565b60006108e66108df610977565b8484610b4a565b6001905092915050565b6000600160008473ffffffffffffffffffffffffffffffffffffffff1673ffffffffffffffffffffffffffffffffffffffff16815260200190815260200160002060008373ffffffffffffffffffffffffffffffffffffffff1673ffffffffffffffffffffffffffffffffffffffff16815260200190815260200160002054905092915050565b600033905090565b600073ffffffffffffffffffffffffffffffffffffffff168373ffffffffffffffffffffffffffffffffffffffff1614156109ef576040517f08c379a00000000000000000000000000000000000000000000000000000000081526004016109e690611584565b60405180910390fd5b600073ffffffffffffffffffffffffffffffffffffffff168273ffffffffffffffffffffffffffffffffffffffff161415610a5f576040517f08c379a0000000000000000000000000000000000000000000000000000000008152600401610a56906114c4565b60405180910390fd5b80600160008573ffffffffffffffffffffffffffffffffffffffff1673ffffffffffffffffffffffffffffffffffffffff16815260200190815260200160002060008473ffffffffffffffffffffffffffffffffffffffff1673ffffffffffffffffffffffffffffffffffffffff168152602001908152602001600020819055508173ffffffffffffffffffffffffffffffffffffffff168373ffffffffffffffffffffffffffffffffffffffff167f8c5be1e5ebec7d5bd14f71427d1e84f3dd0314c0f7b2291e5b200ac8c7c3b92583604051610b3d91906115e4565b60405180910390a3505050565b600073ffffffffffffffffffffffffffffffffffffffff168373ffffffffffffffffffffffffffffffffffffffff161415610bba576040517f08c379a0000000000000000000000000000000000000000000000000000000008152600401610bb190611564565b60405180910390fd5b600073ffffffffffffffffffffffffffffffffffffffff168273ffffffffffffffffffffffffffffffffffffffff161415610c2a576040517f08c379a0000000000000000000000000000000000000000000000000000000008152600401610c2190611484565b60405180910390fd5b610c35838383611102565b60008060008573ffffffffffffffffffffffffffffffffffffffff1673ffffffffffffffffffffffffffffffffffffffff16815260200190815260200160002054905081811015610cbb576040517f08c379a0000000000000000000000000000000000000000000000000000000008152600401610cb2906114e4565b60405180910390fd5b8181036000808673ffffffffffffffffffffffffffffffffffffffff1673ffffffffffffffffffffffffffffffffffffffff16815260200190815260200160002081905550816000808573ffffffffffffffffffffffffffffffffffffffff1673ffffffffffffffffffffffffffffffffffffffff1681526020019081526020016000206000828254610d4e9190611636565b925050819055508273ffffffffffffffffffffffffffffffffffffffff168473ffffffffffffffffffffffffffffffffffffffff167fddf252ad1be2c89b69c2b068fc378daa952ba7f163c4a11628f55a4df523b3ef84604051610db291906115e4565b60405180910390a3610dc5848484611107565b50505050565b600073ffffffffffffffffffffffffffffffffffffffff168273ffffffffffffffffffffffffffffffffffffffff161415610e3b576040517f08c379a0000000000000000000000000000000000000000000000000000000008152600401610e32906115c4565b60405180910390fd5b610e4760008383611102565b8060026000828254610e599190611636565b92505081905550806000808473ffffffffffffffffffffffffffffffffffffffff1673ffffffffffffffffffffffffffffffffffffffff1681526020019081526020016000206000828254610eae9190611636565b925050819055508173ffffffffffffffffffffffffffffffffffffffff16600073ffffffffffffffffffffffffffffffffffffffff167fddf252ad1be2c89b69c2b068fc378daa952ba7f163c4a11628f55a4df523b3ef83604051610f1391906115e4565b60405180910390a3610f2760008383611107565b5050565b600073ffffffffffffffffffffffffffffffffffffffff168273ffffffffffffffffffffffffffffffffffffffff161415610f9b576040517f08c379a0000000000000000000000000000000000000000000000000000000008152600401610f9290611524565b60405180910390fd5b610fa782600083611102565b60008060008473ffffffffffffffffffffffffffffffffffffffff1673ffffffffffffffffffffffffffffffffffffffff1681526020019081526020016000205490508181101561102d576040517f08c379a0000000000000000000000000000000000000000000000000000000008152600401611024906114a4565b60405180910390fd5b8181036000808573ffffffffffffffffffffffffffffffffffffffff1673ffffffffffffffffffffffffffffffffffffffff168152602001908152602001600020819055508160026000828254611084919061168c565b92505081905550600073ffffffffffffffffffffffffffffffffffffffff168373ffffffffffffffffffffffffffffffffffffffff167fddf252ad1be2c89b69c2b068fc378daa952ba7f163c4a11628f55a4df523b3ef846040516110e991906115e4565b60405180910390a36110fd83600084611107565b505050565b505050565b505050565b60008135905061111b81611b2d565b92915050565b60008135905061113081611b44565b92915050565b60006020828403121561114c5761114b6117d8565b5b600061115a8482850161110c565b91505092915050565b6000806040838503121561117a576111796117d8565b5b60006111888582860161110c565b92505060206111998582860161110c565b9150509250929050565b6000806000606084860312156111bc576111bb6117d8565b5b60006111ca8682870161110c565b93505060206111db8682870161110c565b92505060406111ec86828701611121565b9150509250925092565b6000806040838503121561120d5761120c6117d8565b5b600061121b8582860161110c565b925050602061122c85828601611121565b9150509250929050565b61123f816116c0565b82525050565b61124e816116d2565b82525050565b600061125f8261161a565b6112698185611625565b9350611279818560208601611715565b611282816117dd565b840191505092915050565b600061129a602383611625565b91506112a5826117ee565b604082019050919050565b60006112bd602283611625565b91506112c88261183d565b604082019050919050565b60006112e0602283611625565b91506112eb8261188c565b604082019050919050565b6000611303602683611625565b915061130e826118db565b604082019050919050565b6000611326602883611625565b91506113318261192a565b604082019050919050565b6000611349602183611625565b915061135482611979565b604082019050919050565b600061136c602283611625565b9150611377826119c8565b604082019050919050565b600061138f602583611625565b915061139a82611a17565b604082019050919050565b60006113b2602483611625565b91506113bd82611a66565b604082019050919050565b60006113d5602583611625565b91506113e082611ab5565b604082019050919050565b60006113f8601f83611625565b915061140382611b04565b602082019050919050565b611417816116fe565b82525050565b61142681611708565b82525050565b60006020820190506114416000830184611236565b92915050565b600060208201905061145c6000830184611245565b92915050565b6000602082019050818103600083015261147c8184611254565b905092915050565b6000602082019050818103600083015261149d8161128d565b9050919050565b600060208201905081810360008301526114bd816112b0565b9050919050565b600060208201905081810360008301526114dd816112d3565b9050919050565b600060208201905081810360008301526114fd816112f6565b9050919050565b6000602082019050818103600083015261151d81611319565b9050919050565b6000602082019050818103600083015261153d8161133c565b9050919050565b6000602082019050818103600083015261155d8161135f565b9050919050565b6000602082019050818103600083015261157d81611382565b9050919050565b6000602082019050818103600083015261159d816113a5565b9050919050565b600060208201905081810360008301526115bd816113c8565b9050919050565b600060208201905081810360008301526115dd816113eb565b9050919050565b60006020820190506115f9600083018461140e565b92915050565b6000602082019050611614600083018461141d565b92915050565b600081519050919050565b600082825260208201905092915050565b6000611641826116fe565b915061164c836116fe565b9250827fffffffffffffffffffffffffffffffffffffffffffffffffffffffffffffffff038211156116815761168061177a565b5b828201905092915050565b6000611697826116fe565b91506116a2836116fe565b9250828210156116b5576116b461177a565b5b828203905092915050565b60006116cb826116de565b9050919050565b60008115159050919050565b600073ffffffffffffffffffffffffffffffffffffffff82169050919050565b6000819050919050565b600060ff82169050919050565b60005b83811015611733578082015181840152602081019050611718565b83811115611742576000848401525b50505050565b6000600282049050600182168061176057607f821691505b60208210811415611774576117736117a9565b5b50919050565b7f4e487b7100000000000000000000000000000000000000000000000000000000600052601160045260246000fd5b7f4e487b7100000000000000000000000000000000000000000000000000000000600052602260045260246000fd5b600080fd5b6000601f19601f8301169050919050565b7f45524332303a207472616e7366657220746f20746865207a65726f206164647260008201527f6573730000000000000000000000000000000000000000000000000000000000602082015250565b7f45524332303a206275726e20616d6f756e7420657863656564732062616c616e60008201527f6365000000000000000000000000000000000000000000000000000000000000602082015250565b7f45524332303a20617070726f766520746f20746865207a65726f20616464726560008201527f7373000000000000000000000000000000000000000000000000000000000000602082015250565b7f45524332303a207472616e7366657220616d6f756e742065786365656473206260008201527f616c616e63650000000000000000000000000000000000000000000000000000602082015250565b7f45524332303a207472616e7366657220616d6f756e742065786365656473206160008201527f6c6c6f77616e6365000000000000000000000000000000000000000000000000602082015250565b7f45524332303a206275726e2066726f6d20746865207a65726f2061646472657360008201527f7300000000000000000000000000000000000000000000000000000000000000602082015250565b7f506f736974696f6e546f6b656e3a2063616c6c6572206973206e6f74206f776e60008201527f6572000000000000000000000000000000000000000000000000000000000000602082015250565b7f45524332303a207472616e736665722066726f6d20746865207a65726f20616460008201527f6472657373000000000000000000000000000000000000000000000000000000602082015250565b7f45524332303a20617070726f76652066726f6d20746865207a65726f2061646460008201527f7265737300000000000000000000000000000000000000000000000000000000602082015250565b7f45524332303a2064656372656173656420616c6c6f77616e63652062656c6f7760008201527f207a65726f000000000000000000000000000000000000000000000000000000602082015250565b7f45524332303a206d696e7420746f20746865207a65726f206164647265737300600082015250565b611b36816116c0565b8114611b4157600080fd5b50565b611b4d816116fe565b8114611b5857600080fd5b5056fea2646970667358221220e843e6b9c5e30f2fe36fc41d5176d870d529e971ee7b5ce09e9f3aa1cb9305c764736f6c63430008060033",
  "linkReferences": {},
  "deployedLinkReferences": {}
}