{
  "_format": "hh-sol-artifact-1",
  "contractName": "Whitelist",
  "sourceName": "contracts/Whitelist.sol",
  "abi": [
    {
      "inputs": [],
      "stateMutability": "nonpayable",
      "type": "constructor"
    },
    {
      "anonymous": false,
      "inputs": [
        {
          "indexed": true,
          "internalType": "address",
          "name": "providerAddress",
          "type": "address"
        },
        {
          "indexed": false,
          "internalType": "string",
          "name": "underlying",
          "type": "string"
        }
      ],
      "name": "ActivatedDatafeedByProvider",
      "type": "event"
    },
    {
      "anonymous": false,
      "inputs": [
        {
          "indexed": true,
          "internalType": "address",
          "name": "providerAddress",
          "type": "address"
        },
        {
          "indexed": false,
          "internalType": "string",
          "name": "underlying",
          "type": "string"
        }
      ],
      "name": "AddedDatafeed",
      "type": "event"
    },
    {
      "anonymous": false,
      "inputs": [
        {
          "indexed": true,
          "internalType": "address",
          "name": "providerAddress",
          "type": "address"
        }
      ],
      "name": "AddedToWhitelist",
      "type": "event"
    },
    {
      "anonymous": false,
      "inputs": [
        {
          "indexed": true,
          "internalType": "address",
          "name": "providerAddress",
          "type": "address"
        },
        {
          "indexed": false,
          "internalType": "string",
          "name": "underlying",
          "type": "string"
        }
      ],
      "name": "DeactivatedDatafeedByProvider",
      "type": "event"
    },
    {
      "anonymous": false,
      "inputs": [
        {
          "indexed": true,
          "internalType": "address",
          "name": "providerAddress",
          "type": "address"
        },
        {
          "indexed": false,
          "internalType": "string",
          "name": "underlying",
          "type": "string"
        }
      ],
      "name": "RemovedDatafeed",
      "type": "event"
    },
    {
      "anonymous": false,
      "inputs": [
        {
          "indexed": true,
          "internalType": "address",
          "name": "providerAddress",
          "type": "address"
        }
      ],
      "name": "RemovedFromWhitelist",
      "type": "event"
    },
    {
      "anonymous": false,
      "inputs": [
        {
          "indexed": true,
          "internalType": "address",
          "name": "providerAddress",
          "type": "address"
        },
        {
          "indexed": false,
          "internalType": "string",
          "name": "underlying",
          "type": "string"
        }
      ],
      "name": "UpdatedDatafeedActiveFlagByOwner",
      "type": "event"
    },
    {
      "inputs": [
        {
          "internalType": "address",
          "name": "_address",
          "type": "address"
        },
        {
          "internalType": "uint256[]",
          "name": "_index",
          "type": "uint256[]"
        },
        {
          "internalType": "string[]",
          "name": "_matchUnderlying",
          "type": "string[]"
        }
      ],
      "name": "activateDatafeeds",
      "outputs": [],
      "stateMutability": "nonpayable",
      "type": "function"
    },
    {
      "inputs": [
        {
          "internalType": "address",
          "name": "_address",
          "type": "address"
        },
        {
          "internalType": "string[]",
          "name": "_underlyings",
          "type": "string[]"
        }
      ],
      "name": "addDatafeeds",
      "outputs": [],
      "stateMutability": "nonpayable",
      "type": "function"
    },
    {
      "inputs": [
        {
          "internalType": "address[]",
          "name": "_address",
          "type": "address[]"
        }
      ],
      "name": "addToWhitelist",
      "outputs": [],
      "stateMutability": "nonpayable",
      "type": "function"
    },
    {
      "inputs": [
        {
          "internalType": "address",
          "name": "",
          "type": "address"
        },
        {
          "internalType": "uint256",
          "name": "",
          "type": "uint256"
        }
      ],
      "name": "datafeeds",
      "outputs": [
        {
          "internalType": "string",
          "name": "underlying",
          "type": "string"
        },
        {
          "internalType": "bool",
          "name": "isActive",
          "type": "bool"
        }
      ],
      "stateMutability": "view",
      "type": "function"
    },
    {
      "inputs": [
        {
          "internalType": "address",
          "name": "_address",
          "type": "address"
        },
        {
          "internalType": "uint256[]",
          "name": "_index",
          "type": "uint256[]"
        },
        {
          "internalType": "string[]",
          "name": "_matchUnderlying",
          "type": "string[]"
        }
      ],
      "name": "deactivateDatafeeds",
      "outputs": [],
      "stateMutability": "nonpayable",
      "type": "function"
    },
    {
      "inputs": [],
      "name": "getAllProviders",
      "outputs": [
        {
          "internalType": "address[]",
          "name": "",
          "type": "address[]"
        }
      ],
      "stateMutability": "view",
      "type": "function"
    },
    {
      "inputs": [
        {
          "internalType": "address",
          "name": "_address",
          "type": "address"
        }
      ],
      "name": "getDatafeeds",
      "outputs": [
        {
          "components": [
            {
              "internalType": "string",
              "name": "underlying",
              "type": "string"
            },
            {
              "internalType": "bool",
              "name": "isActive",
              "type": "bool"
            }
          ],
          "internalType": "struct IWhitelist.Datafeed[]",
          "name": "",
          "type": "tuple[]"
        }
      ],
      "stateMutability": "view",
      "type": "function"
    },
    {
      "inputs": [],
      "name": "getOwner",
      "outputs": [
        {
          "internalType": "address",
          "name": "",
          "type": "address"
        }
      ],
      "stateMutability": "view",
      "type": "function"
    },
    {
      "inputs": [
        {
          "internalType": "address",
          "name": "_address",
          "type": "address"
        }
      ],
      "name": "isWhitelisted",
      "outputs": [
        {
          "internalType": "bool",
          "name": "",
          "type": "bool"
        }
      ],
      "stateMutability": "view",
      "type": "function"
    },
    {
      "inputs": [],
      "name": "owner",
      "outputs": [
        {
          "internalType": "address",
          "name": "",
          "type": "address"
        }
      ],
      "stateMutability": "view",
      "type": "function"
    },
    {
      "inputs": [
        {
          "internalType": "uint256",
          "name": "",
          "type": "uint256"
        }
      ],
      "name": "providers",
      "outputs": [
        {
          "internalType": "address",
          "name": "",
          "type": "address"
        }
      ],
      "stateMutability": "view",
      "type": "function"
    },
    {
      "inputs": [
        {
          "internalType": "address[]",
          "name": "_address",
          "type": "address[]"
        }
      ],
      "name": "removeFromWhitelist",
      "outputs": [],
      "stateMutability": "nonpayable",
      "type": "function"
    }
  ],
  "bytecode": "0x608060405234801561001057600080fd5b5033600360006101000a81548173ffffffffffffffffffffffffffffffffffffffff021916908373ffffffffffffffffffffffffffffffffffffffff1602179055506128f4806100616000396000f3fe608060405234801561001057600080fd5b50600436106100b45760003560e01c8063893d20e811610071578063893d20e8146101a05780638da5cb5b146101be578063d8f50513146101dc578063dafd84991461020c578063f5d4a33a14610228578063fe28ace114610244576100b4565b80633af32abf146100b95780633bb4497c146100e957806350f3fc8114610107578063548db1741461013757806378c8dd17146101535780637f64978314610184575b600080fd5b6100d360048036038101906100ce9190611c89565b610260565b6040516100e09190612222565b60405180910390f35b6100f16102b5565b6040516100fe91906121de565b60405180910390f35b610121600480360381019061011c9190611e02565b610343565b60405161012e91906121c3565b60405180910390f35b610151600480360381019061014c9190611dc1565b610382565b005b61016d60048036038101906101689190611d85565b6105ff565b60405161017b92919061225f565b60405180910390f35b61019e60048036038101906101999190611dc1565b6106d5565b005b6101a8610a8d565b6040516101b591906121c3565b60405180910390f35b6101c6610ab7565b6040516101d391906121c3565b60405180910390f35b6101f660048036038101906101f19190611c89565b610add565b6040516102039190612200565b60405180910390f35b61022660048036038101906102219190611d06565b610c28565b005b610242600480360381019061023d9190611cb2565b6111cb565b005b61025e60048036038101906102599190611d06565b61140c565b005b60008060008373ffffffffffffffffffffffffffffffffffffffff1673ffffffffffffffffffffffffffffffffffffffff16815260200190815260200160002060009054906101000a900460ff169050919050565b6060600280548060200260200160405190810160405280929190818152602001828054801561033957602002820191906000526020600020905b8160009054906101000a900473ffffffffffffffffffffffffffffffffffffffff1673ffffffffffffffffffffffffffffffffffffffff16815260200190600101908083116102ef575b5050505050905090565b6002818154811061035357600080fd5b906000526020600020016000915054906101000a900473ffffffffffffffffffffffffffffffffffffffff1681565b600360009054906101000a900473ffffffffffffffffffffffffffffffffffffffff1673ffffffffffffffffffffffffffffffffffffffff163373ffffffffffffffffffffffffffffffffffffffff1614610412576040517f08c379a0000000000000000000000000000000000000000000000000000000008152600401610409906122cf565b60405180910390fd5b60005b81518110156105fb57600073ffffffffffffffffffffffffffffffffffffffff1682828151811061046f577f4e487b7100000000000000000000000000000000000000000000000000000000600052603260045260246000fd5b602002602001015173ffffffffffffffffffffffffffffffffffffffff1614156104ce576040517f08c379a00000000000000000000000000000000000000000000000000000000081526004016104c59061232f565b60405180910390fd5b600080600084848151811061050c577f4e487b7100000000000000000000000000000000000000000000000000000000600052603260045260246000fd5b602002602001015173ffffffffffffffffffffffffffffffffffffffff1673ffffffffffffffffffffffffffffffffffffffff16815260200190815260200160002060006101000a81548160ff02191690831515021790555081818151811061059e577f4e487b7100000000000000000000000000000000000000000000000000000000600052603260045260246000fd5b602002602001015173ffffffffffffffffffffffffffffffffffffffff167fcdd2e9b91a56913d370075169cefa1602ba36be5301664f752192bb1709df75760405160405180910390a280806105f390612615565b915050610415565b5050565b6001602052816000526040600020818154811061061b57600080fd5b90600052602060002090600202016000915091505080600001805461063f906125b2565b80601f016020809104026020016040519081016040528092919081815260200182805461066b906125b2565b80156106b85780601f1061068d576101008083540402835291602001916106b8565b820191906000526020600020905b81548152906001019060200180831161069b57829003601f168201915b5050505050908060010160009054906101000a900460ff16905082565b600360009054906101000a900473ffffffffffffffffffffffffffffffffffffffff1673ffffffffffffffffffffffffffffffffffffffff163373ffffffffffffffffffffffffffffffffffffffff1614610765576040517f08c379a000000000000000000000000000000000000000000000000000000000815260040161075c906122cf565b60405180910390fd5b60005b8151811015610a8957600073ffffffffffffffffffffffffffffffffffffffff168282815181106107c2577f4e487b7100000000000000000000000000000000000000000000000000000000600052603260045260246000fd5b602002602001015173ffffffffffffffffffffffffffffffffffffffff161415610821576040517f08c379a00000000000000000000000000000000000000000000000000000000081526004016108189061232f565b60405180910390fd5b60011515600080848481518110610861577f4e487b7100000000000000000000000000000000000000000000000000000000600052603260045260246000fd5b602002602001015173ffffffffffffffffffffffffffffffffffffffff1673ffffffffffffffffffffffffffffffffffffffff16815260200190815260200160002060009054906101000a900460ff16151514610a765760016000808484815181106108f6577f4e487b7100000000000000000000000000000000000000000000000000000000600052603260045260246000fd5b602002602001015173ffffffffffffffffffffffffffffffffffffffff1673ffffffffffffffffffffffffffffffffffffffff16815260200190815260200160002060006101000a81548160ff021916908315150217905550600282828151811061098a577f4e487b7100000000000000000000000000000000000000000000000000000000600052603260045260246000fd5b60200260200101519080600181540180825580915050600190039060005260206000200160009091909190916101000a81548173ffffffffffffffffffffffffffffffffffffffff021916908373ffffffffffffffffffffffffffffffffffffffff160217905550818181518110610a2b577f4e487b7100000000000000000000000000000000000000000000000000000000600052603260045260246000fd5b602002602001015173ffffffffffffffffffffffffffffffffffffffff167fa850ae9193f515cbae8d35e8925bd2be26627fc91bce650b8652ed254e9cab0360405160405180910390a25b8080610a8190612615565b915050610768565b5050565b6000600360009054906101000a900473ffffffffffffffffffffffffffffffffffffffff16905090565b600360009054906101000a900473ffffffffffffffffffffffffffffffffffffffff1681565b6060600160008373ffffffffffffffffffffffffffffffffffffffff1673ffffffffffffffffffffffffffffffffffffffff168152602001908152602001600020805480602002602001604051908101604052809291908181526020016000905b82821015610c1d5783829060005260206000209060020201604051806040016040529081600082018054610b71906125b2565b80601f0160208091040260200160405190810160405280929190818152602001828054610b9d906125b2565b8015610bea5780601f10610bbf57610100808354040283529160200191610bea565b820191906000526020600020905b815481529060010190602001808311610bcd57829003601f168201915b505050505081526020016001820160009054906101000a900460ff16151515158152505081526020019060010190610b3e565b505050509050919050565b8051825114610c6c576040517f08c379a0000000000000000000000000000000000000000000000000000000008152600401610c639061236f565b60405180910390fd5b8273ffffffffffffffffffffffffffffffffffffffff163373ffffffffffffffffffffffffffffffffffffffff161480610cf35750600360009054906101000a900473ffffffffffffffffffffffffffffffffffffffff1673ffffffffffffffffffffffffffffffffffffffff163373ffffffffffffffffffffffffffffffffffffffff16145b610d32576040517f08c379a0000000000000000000000000000000000000000000000000000000008152600401610d299061230f565b60405180910390fd5b60005b82518110156111c557818181518110610d77577f4e487b7100000000000000000000000000000000000000000000000000000000600052603260045260246000fd5b602002602001015180519060200120600160008673ffffffffffffffffffffffffffffffffffffffff1673ffffffffffffffffffffffffffffffffffffffff168152602001908152602001600020848381518110610dfe577f4e487b7100000000000000000000000000000000000000000000000000000000600052603260045260246000fd5b602002602001015181548110610e3d577f4e487b7100000000000000000000000000000000000000000000000000000000600052603260045260246000fd5b9060005260206000209060020201600001604051610e5b91906121ac565b604051809103902014610ea3576040517f08c379a0000000000000000000000000000000000000000000000000000000008152600401610e9a906122ef565b60405180910390fd5b60011515600160008673ffffffffffffffffffffffffffffffffffffffff1673ffffffffffffffffffffffffffffffffffffffff168152602001908152602001600020848381518110610f1f577f4e487b7100000000000000000000000000000000000000000000000000000000600052603260045260246000fd5b602002602001015181548110610f5e577f4e487b7100000000000000000000000000000000000000000000000000000000600052603260045260246000fd5b906000526020600020906002020160010160009054906101000a900460ff16151514610fbf576040517f08c379a0000000000000000000000000000000000000000000000000000000008152600401610fb69061234f565b60405180910390fd5b6000838281518110610ffa577f4e487b7100000000000000000000000000000000000000000000000000000000600052603260045260246000fd5b60200260200101511015611043576040517f08c379a000000000000000000000000000000000000000000000000000000000815260040161103a906122af565b60405180910390fd5b6000600160008673ffffffffffffffffffffffffffffffffffffffff1673ffffffffffffffffffffffffffffffffffffffff1681526020019081526020016000208483815181106110bd577f4e487b7100000000000000000000000000000000000000000000000000000000600052603260045260246000fd5b6020026020010151815481106110fc577f4e487b7100000000000000000000000000000000000000000000000000000000600052603260045260246000fd5b906000526020600020906002020160010160006101000a81548160ff0219169083151502179055508373ffffffffffffffffffffffffffffffffffffffff167fca5ce95bac6a44eb7af6db2ccc247d84d2a9b5d9502a4669a871e612e9ffe3d3838381518110611195577f4e487b7100000000000000000000000000000000000000000000000000000000600052603260045260246000fd5b60200260200101516040516111aa919061223d565b60405180910390a280806111bd90612615565b915050610d35565b50505050565b600360009054906101000a900473ffffffffffffffffffffffffffffffffffffffff1673ffffffffffffffffffffffffffffffffffffffff163373ffffffffffffffffffffffffffffffffffffffff161461125b576040517f08c379a0000000000000000000000000000000000000000000000000000000008152600401611252906122cf565b60405180910390fd5b60005b815181101561140757600160008473ffffffffffffffffffffffffffffffffffffffff1673ffffffffffffffffffffffffffffffffffffffff16815260200190815260200160002060405180604001604052808484815181106112ea577f4e487b7100000000000000000000000000000000000000000000000000000000600052603260045260246000fd5b602002602001015181526020016001151581525090806001815401808255809150506001900390600052602060002090600202016000909190919091506000820151816000019080519060200190611343929190611978565b5060208201518160010160006101000a81548160ff02191690831515021790555050508273ffffffffffffffffffffffffffffffffffffffff167ff63a41ab52274fd6a7553b545ca552cad9b67067a983d148e487e620b98208358383815181106113d7577f4e487b7100000000000000000000000000000000000000000000000000000000600052603260045260246000fd5b60200260200101516040516113ec919061223d565b60405180910390a280806113ff90612615565b91505061125e565b505050565b600360009054906101000a900473ffffffffffffffffffffffffffffffffffffffff1673ffffffffffffffffffffffffffffffffffffffff163373ffffffffffffffffffffffffffffffffffffffff161461149c576040517f08c379a0000000000000000000000000000000000000000000000000000000008152600401611493906122cf565b60405180910390fd5b80518251146114e0576040517f08c379a00000000000000000000000000000000000000000000000000000000081526004016114d79061236f565b60405180910390fd5b60005b825181101561197257818181518110611525577f4e487b7100000000000000000000000000000000000000000000000000000000600052603260045260246000fd5b602002602001015180519060200120600160008673ffffffffffffffffffffffffffffffffffffffff1673ffffffffffffffffffffffffffffffffffffffff1681526020019081526020016000208483815181106115ac577f4e487b7100000000000000000000000000000000000000000000000000000000600052603260045260246000fd5b6020026020010151815481106115eb577f4e487b7100000000000000000000000000000000000000000000000000000000600052603260045260246000fd5b906000526020600020906002020160000160405161160991906121ac565b604051809103902014611651576040517f08c379a0000000000000000000000000000000000000000000000000000000008152600401611648906122ef565b60405180910390fd5b60001515600160008673ffffffffffffffffffffffffffffffffffffffff1673ffffffffffffffffffffffffffffffffffffffff1681526020019081526020016000208483815181106116cd577f4e487b7100000000000000000000000000000000000000000000000000000000600052603260045260246000fd5b60200260200101518154811061170c577f4e487b7100000000000000000000000000000000000000000000000000000000600052603260045260246000fd5b906000526020600020906002020160010160009054906101000a900460ff1615151461176d576040517f08c379a00000000000000000000000000000000000000000000000000000000081526004016117649061228f565b60405180910390fd5b60008382815181106117a8577f4e487b7100000000000000000000000000000000000000000000000000000000600052603260045260246000fd5b602002602001015110156117f1576040517f08c379a00000000000000000000000000000000000000000000000000000000081526004016117e8906122af565b60405180910390fd5b60018060008673ffffffffffffffffffffffffffffffffffffffff1673ffffffffffffffffffffffffffffffffffffffff16815260200190815260200160002084838151811061186a577f4e487b7100000000000000000000000000000000000000000000000000000000600052603260045260246000fd5b6020026020010151815481106118a9577f4e487b7100000000000000000000000000000000000000000000000000000000600052603260045260246000fd5b906000526020600020906002020160010160006101000a81548160ff0219169083151502179055508373ffffffffffffffffffffffffffffffffffffffff167fc9500e8741d73a6174663dcbdad0c749714cbea9ee5ea332621f965f1f7d0afd838381518110611942577f4e487b7100000000000000000000000000000000000000000000000000000000600052603260045260246000fd5b6020026020010151604051611957919061223d565b60405180910390a2808061196a90612615565b9150506114e3565b50505050565b828054611984906125b2565b90600052602060002090601f0160209004810192826119a657600085556119ed565b82601f106119bf57805160ff19168380011785556119ed565b828001600101855582156119ed579182015b828111156119ec5782518255916020019190600101906119d1565b5b5090506119fa91906119fe565b5090565b5b80821115611a175760008160009055506001016119ff565b5090565b6000611a2e611a29846123b4565b61238f565b90508083825260208201905082856020860282011115611a4d57600080fd5b60005b85811015611a7d5781611a638882611bb7565b845260208401935060208301925050600181019050611a50565b5050509392505050565b6000611a9a611a95846123e0565b61238f565b90508083825260208201905082856020860282011115611ab957600080fd5b60005b85811015611b0357813567ffffffffffffffff811115611adb57600080fd5b808601611ae88982611c4a565b85526020850194506020840193505050600181019050611abc565b5050509392505050565b6000611b20611b1b8461240c565b61238f565b90508083825260208201905082856020860282011115611b3f57600080fd5b60005b85811015611b6f5781611b558882611c74565b845260208401935060208301925050600181019050611b42565b5050509392505050565b6000611b8c611b8784612438565b61238f565b905082815260208101848484011115611ba457600080fd5b611baf848285612570565b509392505050565b600081359050611bc681612890565b92915050565b600082601f830112611bdd57600080fd5b8135611bed848260208601611a1b565b91505092915050565b600082601f830112611c0757600080fd5b8135611c17848260208601611a87565b91505092915050565b600082601f830112611c3157600080fd5b8135611c41848260208601611b0d565b91505092915050565b600082601f830112611c5b57600080fd5b8135611c6b848260208601611b79565b91505092915050565b600081359050611c83816128a7565b92915050565b600060208284031215611c9b57600080fd5b6000611ca984828501611bb7565b91505092915050565b60008060408385031215611cc557600080fd5b6000611cd385828601611bb7565b925050602083013567ffffffffffffffff811115611cf057600080fd5b611cfc85828601611bf6565b9150509250929050565b600080600060608486031215611d1b57600080fd5b6000611d2986828701611bb7565b935050602084013567ffffffffffffffff811115611d4657600080fd5b611d5286828701611c20565b925050604084013567ffffffffffffffff811115611d6f57600080fd5b611d7b86828701611bf6565b9150509250925092565b60008060408385031215611d9857600080fd5b6000611da685828601611bb7565b9250506020611db785828601611c74565b9150509250929050565b600060208284031215611dd357600080fd5b600082013567ffffffffffffffff811115611ded57600080fd5b611df984828501611bcc565b91505092915050565b600060208284031215611e1457600080fd5b6000611e2284828501611c74565b91505092915050565b6000611e378383611e57565b60208301905092915050565b6000611e4f838361216f565b905092915050565b611e6081612528565b82525050565b611e6f81612528565b82525050565b6000611e808261249e565b611e8a81856124d9565b9350611e9583612469565b8060005b83811015611ec6578151611ead8882611e2b565b9750611eb8836124bf565b925050600181019050611e99565b5085935050505092915050565b6000611ede826124a9565b611ee881856124ea565b935083602082028501611efa85612479565b8060005b85811015611f365784840389528151611f178582611e43565b9450611f22836124cc565b925060208a01995050600181019050611efe565b50829750879550505050505092915050565b611f518161253a565b82525050565b611f608161253a565b82525050565b60008154611f73816125b2565b611f7d81866124fb565b94506001821660008114611f985760018114611fa957611fdc565b60ff19831686528186019350611fdc565b611fb285612489565b60005b83811015611fd457815481890152600182019150602081019050611fb5565b838801955050505b50505092915050565b6000611ff0826124b4565b611ffa8185612506565b935061200a81856020860161257f565b612013816126eb565b840191505092915050565b6000612029826124b4565b6120338185612517565b935061204381856020860161257f565b61204c816126eb565b840191505092915050565b6000612064601b83612517565b915061206f826126fc565b602082019050919050565b6000612087601983612517565b915061209282612725565b602082019050919050565b60006120aa600b83612517565b91506120b58261274e565b602082019050919050565b60006120cd604583612517565b91506120d882612777565b606082019050919050565b60006120f0602083612517565b91506120fb826127ec565b602082019050919050565b6000612113600c83612517565b915061211e82612815565b602082019050919050565b6000612136602083612517565b91506121418261283e565b602082019050919050565b6000612159602083612517565b915061216482612867565b602082019050919050565b6000604083016000830151848203600086015261218c8282611fe5565b91505060208301516121a16020860182611f48565b508091505092915050565b60006121b88284611f66565b915081905092915050565b60006020820190506121d86000830184611e66565b92915050565b600060208201905081810360008301526121f88184611e75565b905092915050565b6000602082019050818103600083015261221a8184611ed3565b905092915050565b60006020820190506122376000830184611f57565b92915050565b60006020820190508181036000830152612257818461201e565b905092915050565b60006040820190508181036000830152612279818561201e565b90506122886020830184611f57565b9392505050565b600060208201905081810360008301526122a881612057565b9050919050565b600060208201905081810360008301526122c88161207a565b9050919050565b600060208201905081810360008301526122e88161209d565b9050919050565b60006020820190508181036000830152612308816120c0565b9050919050565b60006020820190508181036000830152612328816120e3565b9050919050565b6000602082019050818103600083015261234881612106565b9050919050565b6000602082019050818103600083015261236881612129565b9050919050565b600060208201905081810360008301526123888161214c565b9050919050565b60006123996123aa565b90506123a582826125e4565b919050565b6000604051905090565b600067ffffffffffffffff8211156123cf576123ce6126bc565b5b602082029050602081019050919050565b600067ffffffffffffffff8211156123fb576123fa6126bc565b5b602082029050602081019050919050565b600067ffffffffffffffff821115612427576124266126bc565b5b602082029050602081019050919050565b600067ffffffffffffffff821115612453576124526126bc565b5b61245c826126eb565b9050602081019050919050565b6000819050602082019050919050565b6000819050602082019050919050565b60008190508160005260206000209050919050565b600081519050919050565b600081519050919050565b600081519050919050565b6000602082019050919050565b6000602082019050919050565b600082825260208201905092915050565b600082825260208201905092915050565b600081905092915050565b600082825260208201905092915050565b600082825260208201905092915050565b600061253382612546565b9050919050565b60008115159050919050565b600073ffffffffffffffffffffffffffffffffffffffff82169050919050565b6000819050919050565b82818337600083830152505050565b60005b8381101561259d578082015181840152602081019050612582565b838111156125ac576000848401525b50505050565b600060028204905060018216806125ca57607f821691505b602082108114156125de576125dd61268d565b5b50919050565b6125ed826126eb565b810181811067ffffffffffffffff8211171561260c5761260b6126bc565b5b80604052505050565b600061262082612566565b91507fffffffffffffffffffffffffffffffffffffffffffffffffffffffffffffffff8214156126535761265261265e565b5b600182019050919050565b7f4e487b7100000000000000000000000000000000000000000000000000000000600052601160045260246000fd5b7f4e487b7100000000000000000000000000000000000000000000000000000000600052602260045260246000fd5b7f4e487b7100000000000000000000000000000000000000000000000000000000600052604160045260246000fd5b6000601f19601f8301169050919050565b7f446174616665656420697320616c7265616479206163746976652e0000000000600082015250565b7f496e6465782063616e6e6f74206265206e656761746976652e00000000000000600082015250565b7f4f6e6c79206f776e65722e000000000000000000000000000000000000000000600082015250565b7f4d69736d61746368206265747765656e20756e6465726c79696e67206e616d6560008201527f2061742070726f766964656420696e64657820616e642065787065637465642060208201527f6e616d652e000000000000000000000000000000000000000000000000000000604082015250565b7f4f6e6c79206f776e6572206f722064617461666565642070726f76696465722e600082015250565b7f4e756c6c20616464726573730000000000000000000000000000000000000000600082015250565b7f446174616665656420697320616c72656164792064656163746976617465642e600082015250565b7f41727261797320617265206f6620646966666572656e74206c656e677468732e600082015250565b61289981612528565b81146128a457600080fd5b50565b6128b081612566565b81146128bb57600080fd5b5056fea26469706673582212201d33b78333da71adf21c706e2ebbbe34fc8f21f096137f02867ba4d45a2b707664736f6c63430008040033",
  "linkReferences": {},
  "deployedLinkReferences": {}
}